{
  "_format": "hh-sol-artifact-1",
  "contractName": "DocumentVerification",
  "sourceName": "contracts/DocumentVerification.sol",
  "abi": [
    {
      "inputs": [
        {
          "internalType": "address",
          "name": "",
          "type": "address"
        }
      ],
      "name": "documents",
      "outputs": [
        {
          "internalType": "string",
          "name": "hash",
          "type": "string"
        },
        {
          "internalType": "string",
          "name": "signature",
          "type": "string"
        },
        {
          "internalType": "address",
          "name": "verifier",
          "type": "address"
        }
      ],
      "stateMutability": "view",
      "type": "function"
    },
    {
      "inputs": [
        {
          "internalType": "address",
          "name": "_user",
          "type": "address"
        }
      ],
      "name": "getDocument",
      "outputs": [
        {
          "internalType": "string",
          "name": "",
          "type": "string"
        },
        {
          "internalType": "string",
          "name": "",
          "type": "string"
        },
        {
          "internalType": "address",
          "name": "",
          "type": "address"
        }
      ],
      "stateMutability": "view",
      "type": "function"
    },
    {
      "inputs": [],
      "name": "getMyDocument",
      "outputs": [
        {
          "internalType": "string",
          "name": "",
          "type": "string"
        },
        {
          "internalType": "string",
          "name": "",
          "type": "string"
        },
        {
          "internalType": "address",
          "name": "",
          "type": "address"
        }
      ],
      "stateMutability": "view",
      "type": "function"
    },
    {
      "inputs": [
        {
          "internalType": "string",
          "name": "_hash",
          "type": "string"
        },
        {
          "internalType": "string",
          "name": "_signature",
          "type": "string"
        }
      ],
      "name": "storeSignedHash",
      "outputs": [],
      "stateMutability": "nonpayable",
      "type": "function"
    }
  ],
  "bytecode": "0x608060405234801561001057600080fd5b50610d50806100206000396000f3fe608060405234801561001057600080fd5b506004361061004c5760003560e01c806372e2a59e14610051578063a26d4bf514610083578063cbe99b39146100a3578063daee24cc146100d5575b600080fd5b61006b60048036038101906100669190610774565b6100f1565b60405161007a93929190610840565b60405180910390f35b61008b6102d9565b60405161009a93929190610840565b60405180910390f35b6100bd60048036038101906100b89190610774565b6104bf565b6040516100cc93929190610840565b60405180910390f35b6100ef60048036038101906100ea91906109ba565b610619565b005b6060806000806000808673ffffffffffffffffffffffffffffffffffffffff1673ffffffffffffffffffffffffffffffffffffffff16815260200190815260200160002060405180606001604052908160008201805461015090610a61565b80601f016020809104026020016040519081016040528092919081815260200182805461017c90610a61565b80156101c95780601f1061019e576101008083540402835291602001916101c9565b820191906000526020600020905b8154815290600101906020018083116101ac57829003601f168201915b505050505081526020016001820180546101e290610a61565b80601f016020809104026020016040519081016040528092919081815260200182805461020e90610a61565b801561025b5780601f106102305761010080835404028352916020019161025b565b820191906000526020600020905b81548152906001019060200180831161023e57829003601f168201915b505050505081526020016002820160009054906101000a900473ffffffffffffffffffffffffffffffffffffffff1673ffffffffffffffffffffffffffffffffffffffff1673ffffffffffffffffffffffffffffffffffffffff16815250509050806000015181602001518260400151935093509350509193909250565b6060806000806000803373ffffffffffffffffffffffffffffffffffffffff1673ffffffffffffffffffffffffffffffffffffffff16815260200190815260200160002060405180606001604052908160008201805461033890610a61565b80601f016020809104026020016040519081016040528092919081815260200182805461036490610a61565b80156103b15780601f10610386576101008083540402835291602001916103b1565b820191906000526020600020905b81548152906001019060200180831161039457829003601f168201915b505050505081526020016001820180546103ca90610a61565b80601f01602080910402602001604051908101604052809291908181526020018280546103f690610a61565b80156104435780601f1061041857610100808354040283529160200191610443565b820191906000526020600020905b81548152906001019060200180831161042657829003601f168201915b505050505081526020016002820160009054906101000a900473ffffffffffffffffffffffffffffffffffffffff1673ffffffffffffffffffffffffffffffffffffffff1673ffffffffffffffffffffffffffffffffffffffff1681525050905080600001518160200151826040015193509350935050909192565b60006020528060005260406000206000915090508060000180546104e290610a61565b80601f016020809104026020016040519081016040528092919081815260200182805461050e90610a61565b801561055b5780601f106105305761010080835404028352916020019161055b565b820191906000526020600020905b81548152906001019060200180831161053e57829003601f168201915b50505050509080600101805461057090610a61565b80601f016020809104026020016040519081016040528092919081815260200182805461059c90610a61565b80156105e95780601f106105be576101008083540402835291602001916105e9565b820191906000526020600020905b8154815290600101906020018083116105cc57829003601f168201915b5050505050908060020160009054906101000a900473ffffffffffffffffffffffffffffffffffffffff16905083565b60405180606001604052808381526020018281526020013373ffffffffffffffffffffffffffffffffffffffff168152506000803373ffffffffffffffffffffffffffffffffffffffff1673ffffffffffffffffffffffffffffffffffffffff168152602001908152602001600020600082015181600001908161069d9190610c48565b5060208201518160010190816106b39190610c48565b5060408201518160020160006101000a81548173ffffffffffffffffffffffffffffffffffffffff021916908373ffffffffffffffffffffffffffffffffffffffff1602179055509050505050565b6000604051905090565b600080fd5b600080fd5b600073ffffffffffffffffffffffffffffffffffffffff82169050919050565b600061074182610716565b9050919050565b61075181610736565b811461075c57600080fd5b50565b60008135905061076e81610748565b92915050565b60006020828403121561078a5761078961070c565b5b60006107988482850161075f565b91505092915050565b600081519050919050565b600082825260208201905092915050565b60005b838110156107db5780820151818401526020810190506107c0565b60008484015250505050565b6000601f19601f8301169050919050565b6000610803826107a1565b61080d81856107ac565b935061081d8185602086016107bd565b610826816107e7565b840191505092915050565b61083a81610736565b82525050565b6000606082019050818103600083015261085a81866107f8565b9050818103602083015261086e81856107f8565b905061087d6040830184610831565b949350505050565b600080fd5b600080fd5b7f4e487b7100000000000000000000000000000000000000000000000000000000600052604160045260246000fd5b6108c7826107e7565b810181811067ffffffffffffffff821117156108e6576108e561088f565b5b80604052505050565b60006108f9610702565b905061090582826108be565b919050565b600067ffffffffffffffff8211156109255761092461088f565b5b61092e826107e7565b9050602081019050919050565b82818337600083830152505050565b600061095d6109588461090a565b6108ef565b9050828152602081018484840111156109795761097861088a565b5b61098484828561093b565b509392505050565b600082601f8301126109a1576109a0610885565b5b81356109b184826020860161094a565b91505092915050565b600080604083850312156109d1576109d061070c565b5b600083013567ffffffffffffffff8111156109ef576109ee610711565b5b6109fb8582860161098c565b925050602083013567ffffffffffffffff811115610a1c57610a1b610711565b5b610a288582860161098c565b9150509250929050565b7f4e487b7100000000000000000000000000000000000000000000000000000000600052602260045260246000fd5b60006002820490506001821680610a7957607f821691505b602082108103610a8c57610a8b610a32565b5b50919050565b60008190508160005260206000209050919050565b60006020601f8301049050919050565b600082821b905092915050565b600060088302610af47fffffffffffffffffffffffffffffffffffffffffffffffffffffffffffffffff82610ab7565b610afe8683610ab7565b95508019841693508086168417925050509392505050565b6000819050919050565b6000819050919050565b6000610b45610b40610b3b84610b16565b610b20565b610b16565b9050919050565b6000819050919050565b610b5f83610b2a565b610b73610b6b82610b4c565b848454610ac4565b825550505050565b600090565b610b88610b7b565b610b93818484610b56565b505050565b5b81811015610bb757610bac600082610b80565b600181019050610b99565b5050565b601f821115610bfc57610bcd81610a92565b610bd684610aa7565b81016020851015610be5578190505b610bf9610bf185610aa7565b830182610b98565b50505b505050565b600082821c905092915050565b6000610c1f60001984600802610c01565b1980831691505092915050565b6000610c388383610c0e565b9150826002028217905092915050565b610c51826107a1565b67ffffffffffffffff811115610c6a57610c6961088f565b5b610c748254610a61565b610c7f828285610bbb565b600060209050601f831160018114610cb25760008415610ca0578287015190505b610caa8582610c2c565b865550610d12565b601f198416610cc086610a92565b60005b82811015610ce857848901518255600182019150602085019450602081019050610cc3565b86831015610d055784890151610d01601f891682610c0e565b8355505b6001600288020188555050505b50505050505056fea26469706673582212205d4a08210a21870cbc602a881d4d5a480f2726eadf9c56510d7dffd39f6fbcb164736f6c63430008120033",
  "linkReferences": {},
  "deployedLinkReferences": {}
}