{
  "_format": "hh-sol-artifact-1",
  "contractName": "FileStorage",
  "sourceName": "contracts/FileStorage.sol",
  "abi": [
    {
      "anonymous": false,
      "inputs": [
        {
          "indexed": false,
          "internalType": "string",
          "name": "idNumber",
          "type": "string"
        },
        {
          "indexed": false,
          "internalType": "string",
          "name": "ipfsHash",
          "type": "string"
        }
      ],
      "name": "FileUploaded",
      "type": "event"
    },
    {
      "inputs": [
        {
          "internalType": "string",
          "name": "idNumber",
          "type": "string"
        }
      ],
      "name": "retrieveFile",
      "outputs": [
        {
          "internalType": "string",
          "name": "",
          "type": "string"
        }
      ],
      "stateMutability": "view",
      "type": "function"
    },
    {
      "inputs": [
        {
          "internalType": "string",
          "name": "idNumber",
          "type": "string"
        },
        {
          "internalType": "string",
          "name": "_ipfsHash",
          "type": "string"
        }
      ],
      "name": "uploadFile",
      "outputs": [],
      "stateMutability": "nonpayable",
      "type": "function"
    }
  ],
  "bytecode": "0x608060405234801561001057600080fd5b50610804806100206000396000f3fe608060405234801561001057600080fd5b50600436106100365760003560e01c80632804401c1461003b578063996d50bf1461006b575b600080fd5b610055600480360381019061005091906102fa565b610087565b60405161006291906103c2565b60405180910390f35b610085600480360381019061008091906103e4565b610137565b005b60606000826040516100999190610498565b908152602001604051809103902080546100b2906104de565b80601f01602080910402602001604051908101604052809291908181526020018280546100de906104de565b801561012b5780601f106101005761010080835404028352916020019161012b565b820191906000526020600020905b81548152906001019060200180831161010e57829003601f168201915b50505050509050919050565b806000836040516101489190610498565b9081526020016040518091039020908161016291906106c5565b507fb8a7c0a723aeda01511e7d7da21ebab312983e489603e0973143ee22d41e1a1c8282604051610194929190610797565b60405180910390a15050565b6000604051905090565b600080fd5b600080fd5b600080fd5b600080fd5b6000601f19601f8301169050919050565b7f4e487b7100000000000000000000000000000000000000000000000000000000600052604160045260246000fd5b610207826101be565b810181811067ffffffffffffffff82111715610226576102256101cf565b5b80604052505050565b60006102396101a0565b905061024582826101fe565b919050565b600067ffffffffffffffff821115610265576102646101cf565b5b61026e826101be565b9050602081019050919050565b82818337600083830152505050565b600061029d6102988461024a565b61022f565b9050828152602081018484840111156102b9576102b86101b9565b5b6102c484828561027b565b509392505050565b600082601f8301126102e1576102e06101b4565b5b81356102f184826020860161028a565b91505092915050565b6000602082840312156103105761030f6101aa565b5b600082013567ffffffffffffffff81111561032e5761032d6101af565b5b61033a848285016102cc565b91505092915050565b600081519050919050565b600082825260208201905092915050565b60005b8381101561037d578082015181840152602081019050610362565b60008484015250505050565b600061039482610343565b61039e818561034e565b93506103ae81856020860161035f565b6103b7816101be565b840191505092915050565b600060208201905081810360008301526103dc8184610389565b905092915050565b600080604083850312156103fb576103fa6101aa565b5b600083013567ffffffffffffffff811115610419576104186101af565b5b610425858286016102cc565b925050602083013567ffffffffffffffff811115610446576104456101af565b5b610452858286016102cc565b9150509250929050565b600081905092915050565b600061047282610343565b61047c818561045c565b935061048c81856020860161035f565b80840191505092915050565b60006104a48284610467565b915081905092915050565b7f4e487b7100000000000000000000000000000000000000000000000000000000600052602260045260246000fd5b600060028204905060018216806104f657607f821691505b602082108103610509576105086104af565b5b50919050565b60008190508160005260206000209050919050565b60006020601f8301049050919050565b600082821b905092915050565b6000600883026105717fffffffffffffffffffffffffffffffffffffffffffffffffffffffffffffffff82610534565b61057b8683610534565b95508019841693508086168417925050509392505050565b6000819050919050565b6000819050919050565b60006105c26105bd6105b884610593565b61059d565b610593565b9050919050565b6000819050919050565b6105dc836105a7565b6105f06105e8826105c9565b848454610541565b825550505050565b600090565b6106056105f8565b6106108184846105d3565b505050565b5b81811015610634576106296000826105fd565b600181019050610616565b5050565b601f8211156106795761064a8161050f565b61065384610524565b81016020851015610662578190505b61067661066e85610524565b830182610615565b50505b505050565b600082821c905092915050565b600061069c6000198460080261067e565b1980831691505092915050565b60006106b5838361068b565b9150826002028217905092915050565b6106ce82610343565b67ffffffffffffffff8111156106e7576106e66101cf565b5b6106f182546104de565b6106fc828285610638565b600060209050601f83116001811461072f576000841561071d578287015190505b61072785826106a9565b86555061078f565b601f19841661073d8661050f565b60005b8281101561076557848901518255600182019150602085019450602081019050610740565b86831015610782578489015161077e601f89168261068b565b8355505b6001600288020188555050505b505050505050565b600060408201905081810360008301526107b18185610389565b905081810360208301526107c58184610389565b9050939250505056fea2646970667358221220e4513d71947cdd4bd1ac21378b2a66e74a7e9e10203c9a74b987a15675d7301c64736f6c63430008120033",
  "linkReferences": {},
  "deployedLinkReferences": {}
}